:020000040800F2
:10000000500800208901000857160008B3140008A2
:1000100055160008AF020008D91A000800000000B9
:100020000000000000000000000000005B16000857
:10003000B102000800000000591600085D16000813
:10004000A3010008A3010008A3010008A301000800
:10005000A3010008A3010008A3010008A3010008F0
:10006000A3010008A3010008A3010008A3010008E0
:10007000A3010008A3010008A3010008A3010008D0
:10008000A3010008A3010008A3010008A3010008C0
:10009000A3010008A3010008A3010008A3010008B0
:1000A000A3010008C1160008A3010008A30100086D
:1000B000A3010008CD160008A3010008A301000851
:1000C000A3010008A3010008A3010008A301000880
:1000D000A3010008CD1A0008A3010008A30100082D
:1000E000A3010008A3010008A301000800F002F822
:1000F00000F03AF80AA090E8000C82448344AAF188
:100100000107DA4501D100F02FF8AFF2090EBAE885
:100110000F0013F0010F18BFFB1A43F0010318473B
:10012000B0340000D0340000103A24BF78C878C141
:10013000FAD8520724BF30C830C144BF04680C60ED
:10014000704700000023002400250026103A28BF35
:1001500078C1FBD8520728BF30C148BF0B60704739
:100160001FB51FBD10B510BD00F06CF81146FFF7AC
:10017000F7FF02F027F800F08AF803B4FFF7F2FF68
:1001800003BC00F08DF8000009488047094800478B
:10019000FEE7FEE7FEE7FEE7FEE7FEE7FEE7FEE737
:1001A000FEE7FEE704480549054A064B7047000094
:1001B000BF160008ED000008500200205008002083
:1001C00050040020500400204FF0000200B51346F8
:1001D00094469646203922BFA0E80C50A0E80C5067
:1001E000B1F12001BFF4F7AF090728BFA0E80C5018
:1001F00048BF0CC05DF804EB890028BF40F8042B11
:1002000008BF704748BF20F8022B11F0804F18BF7D
:1002100000F8012B704770477047704710B500F029
:1002200009F8006810BD10B5044600F003F804603A
:1002300010BD000000487047EC01002000487047E6
:10024000EC0100207546FFF7F9FFAE460500694650
:10025000534620F00700854618B020B5FFF7A2FFEF
:10026000BDE820404FF000064FF000074FF00008B7
:100270004FF0000B21F00701AC46ACE8C009ACE838
:10028000C009ACE8C009ACE8C0098D46704710B59C
:100290000446AFF300802046BDE81040FFF76DBF75
:1002A00001491820ABBEFEE7260002007047FEE7BA
:1002B000704772B6FEE710B590F8211000220229AF
:1002C00005D00421816380F82020012010BD016841
:1002D0000B6823F00E030B6001680B6823F0010329
:1002E0000B6090F84030C46B012101FA03F36360A6
:1002F00080F8211080F82020104610BD10B590F82D
:1003000021100024022903D00421816301243DE04F
:1003100001680A6822F00E020A6001680A6822F089
:1003200001020A601A4A0168914201D1012121E0CB
:10033000174A1432914201D110211BE0144A28328D
:10034000914201D1891515E0114A3C32914201D107
:1003500089140FE00E4A5032914202D14FF480319D
:1003600008E00B4A6432914202D14FF4801101E05F
:100370004FF08071064A083A5160012180F821103F
:10038000002180F82010416B01B18847204610BD44
:10039000080002402DE9F84FDFF8B8910024A9F1D8
:1003A000040B23460F2709F1040AABF1040EC9E040
:1003B0000125A5402A40AA427DD1674ED1F804C04C
:1003C000ACEB0608B44532D014DCBCF1030F3AD0D4
:1003D00009DCBCF1000F2AD0BCF1010F1CD0BCF12C
:1003E000020F31D11DE0BCF1110F17D0BCF1120F7B
:1003F0002AD119E0B8F5881F19D006DCB8F5803F7E
:1004000015D0B8F5801F1FD111E0B8F5001F0ED030
:10041000B8F5041F18D10AE0CB6815E0CB681B1DA6
:1004200012E0CB6808330FE0CB680C330CE08B682C
:100430002BB1012B4FF0080303D0456104E00423E6
:1004400002E0056100E00023FF2A01D8064601E032
:1004500000F104064FEA840501D9A5F12005D6F87C
:10046000008007FA05FC28EA0C0803FA05F548EABB
:100470000508C6F800804D68ED0062D5374DAE69BD
:1004800046F00106AE61AD6924F0030605F00105F2
:100490000095334D06EB050CDCF80850A607360F27
:1004A00007FA06F825EA0805DFF8B880404503D1C9
:1004B0004FF0000817E044E0DFF8AC80404502D17F
:1004C0004FF001080FE0DFF8A480404502D14FF063
:1004D000020808E0DFF89880404502D14FF0030899
:1004E00001E04FF0040808FA06F848EA0508CCF8DD
:1004F00008804D68D9F80060ED024D4601D51643DD
:1005000000E096432E604D68DAF80060AD02554673
:1005100001D5164300E096432E604D68DBF800607D
:10052000AD035D4601D5164300E096432E604D684D
:10053000DEF80060ED03754601D5164300E09643F2
:100540002E60641C0D682A46E5407FF431AFBDE89B
:10055000F88F000008040140000011100010024054
:100560000000014000080140000C01400010014063
:10057000001401400148806870470000100000200E
:1005800002488168027811448160704710000020A1
:10059000074810B5016841F010010160032000F028
:1005A00079F8072000F006F800F024F8002010BDCC
:1005B0000020024070B50D4D04464FF47A71287842
:1005C000B1FBF0F00A490968B1FBF0F000F0E0FA85
:1005D00048B9102C07D200222146501E00F03AF8EC
:1005E00000206C6070BD012070BD00001000002074
:1005F0001C0000200E4808B5816941F001018161AD
:10060000816901F001010091C16941F08051C1612E
:10061000C06900F080500090042000F03BF80548CD
:10062000416821F0E06141F00071416008BD0000C7
:100630000010024000000140002809DB00F01F020A
:10064000012191404009800000F1E020C0F8001134
:1006500070470000F0B40E4B1B680C46C3F3022336
:10066000C3F10705042D00D90425191D072901D25E
:10067000002300E0DB1E012606FA05F1491E214099
:1006800099409E40761E16403143F0BC01F039BAC5
:100690000CED00E0064900F0070208684FF6FF0382
:1006A000184040EA0220034A1043086070470000E7
:1006B0000CED00E00000FA052DE9F0470F460500BB
:1006C00061D0434E306800F00700B84209D230686C
:1006D00020F0070038433060306800F00700B8426F
:1006E00051D128683B4C810712D5400703D560687B
:1006F00040F4E06060602878000703D5606840F44B
:10070000605060606068A96820F0F0000843606095
:100710002878C00728D06868012810D021680228EE
:1007200010D0890700292EDA616821F00301014306
:100730006160FFF71FFF804641F288390DE02168B4
:100740008903EFE78901EDE7FFF714FFA0EB08014C
:10075000494502D90320BDE8F0876068696800F068
:100760000C00B0EB810FEFD1306800F00700B84209
:100770000BD9306820F0070038433060306800F053
:100780000700B84201D00120E5E72878400705D5E9
:100790006068E96820F4E06008436060287800073A
:1007A00006D56068296920F4605040EAC1006060A5
:1007B00000F038F86168084AC1F30311515CC84081
:1007C0000649086006480068FFF7F4FE0020C2E70B
:1007D0000020024000100240963400081C00002057
:1007E000140000200448054900684968044AC1F320
:1007F0000221515CC84070471C00002000100240DC
:10080000A63400080448054900684968044AC1F351
:10081000C221515CC84070471C00002000100240FB
:10082000A63400080E4A51680E4801F00C03042B50
:1008300011D0082B0FD10C48C1F38343C903C05C0E
:100840000AD55168084AC1F34041921E515C054ADD
:100850005043B0FBF1F07047044948437047000033
:100860000010024000127A008634000800093D00A2
:100870002DE9F84F040070D02078C04DC00749D052
:100880006868C0F38100012807D06868C0F3810060
:10089000022809D16868C00306D52868800339D5C5
:1008A00060680028E7D035E06068B0F5803F0BD085
:1008B00010B1B0F5A02F11D0286820F48030286046
:1008C000286820F4802002E0286840F48030286006
:1008D000606890B1FFF74EFE06460AE0286840F4D3
:1008E00080202860F0E700BFFFF744FE801B6428EB
:1008F00073D828688003F7D50CE0FFF73BFE064667
:1009000005E000BFFFF736FE801B6428F0D828689A
:100910008003F7D420789A4E80074FF001094FF0FA
:10092000000839D5686810F00C0F07D06868C0F36C
:100930008100022809D16868C00306D428688007AE
:1009400014D52069012808D110E02069B0B1C6F89B
:100950000090FFF70FFE074605E00AE1FFF70AFEE9
:10096000C01B0228C4D828688007F7D528686169A9
:1009700020F0F80040EAC10028600DE0C6F80080D1
:10098000FFF7F8FD074604E0FFF7F4FDC01B02285F
:1009900023D828688007F7D4207800072CD5794819
:1009A000A169D9B1C0F80090FFF7E4FD074604E063
:1009B000FFF7E0FDC01B02280FD8686A8007F7D553
:1009C00071484FF4FA510068B0FBF1F0009000BF9D
:1009D0000098411E0091FAD20EE080E0C0F800803D
:1009E000FFF7C8FD074604E0FFF7C4FDC01B02285F
:1009F00075D8686A8007F7D42078400760D5E86921
:100A00000027C00008D4E86940F08050E861E86938
:100A1000012700F0805000905C480168C90513D49C
:100A20000168834641F480710160FFF7A3FD8246AF
:100A300006E000BFFFF79EFDA0EB0A0064284ED839
:100A4000DBF80000C005F5D5E06801280AD008B140
:100A5000052813D0286A20F001002862286A20F0B7
:100A6000040002E0286A40F001002862E06841F2D8
:100A7000883B98B1FFF77EFD82460BE0286A40F084
:100A800004002862EEE700BFFFF774FDA0EB0A0147
:100A900059455AD8286A8007F6D50CE0FFF76AFD59
:100AA000824605E0FFF766FDA0EB0A0159454CD8E8
:100AB000286A8007F6D41FB1E86920F08050E86109
:100AC000E06988B36968C1F38101022944D0022832
:100AD000C6F8608004D0FFF74DFD044638E034E0EE
:100AE000FFF748FD074604E0FFF744FDC01B02285E
:100AF0002BD828688001F7D4206AB0F5803F05D153
:100B00006868A16820F4003008436860D4E90801EF
:100B10000843696821F4741108436860C6F860905E
:100B2000FFF728FD044606E025E000BFFFF722FDA1
:100B3000001B022809D828688001F7D51BE000BFF8
:100B4000FFF718FD001B022802D90320BDE8F88F2B
:100B500028688001F4D40EE00128F7D06868226A82
:100B600000F48031914204D1616A00F4701088422F
:100B700001D00120EAE70020E8E700000010024071
:100B800000004242800442421C00002000700040ED
:100B900010B5401EB0F1807F01D3012010BD4FF091
:100BA000E02460610F21601700F0ABFF0020A0611E
:100BB00007202061002010BD7047704770B590F885
:100BC0003C20012A26D0012480F83C40022280F8F3
:100BD0003D2003685A689D6822F070060A68324317
:100BE0005A600D4B02689A4208D0B2F1804F05D08E
:100BF0000A4B9A4202D00A4B9A4204D1496825F026
:100C000080031943916080F83D40002180F83C103A
:100C1000084670BD022070BD002C01400004004059
:100C20000008004010B5040003D094F83D0010B156
:100C300007E0012010BD002084F83C00204600F0B1
:100C40001FF8022084F83D00211D206800F044FDBB
:100C5000012084F8460084F83E0084F83F0084F8C0
:100C6000400084F8410084F8420084F8430084F88E
:100C7000440084F8450084F83D00002010BD0000C9
:100C800008B5114A01681148914211D1816941F4B6
:100C9000006181618069002200F4006000901146CB
:100CA0001820FFF7D7FCBDE808401820FFF7C4BCA8
:100CB000074A914207D1C16941F00201C161C0698F
:100CC00000F00200009008BD002C0140001002401E
:100CD0000004004090F83D10012901D00120704728
:100CE000022180F83D100168CA6842F00102CA6022
:100CF00000680B49884208D0B0F1804F05D00949FF
:100D0000884202D00849884204D1816801F0070175
:100D1000062903D0016841F00101016000207047FD
:100D2000002C0140000400400008004070B504465B
:100D300090F83C000025012817D0012684F83C607B
:100D4000022084F83D002068826822F0770222F4B5
:100D50007F4282600868502838D00DDC20284FD0B0
:100D600005DC90B3102811D14AE0022070BD302874
:100D700046D040280AD13BE060282FD070280DD003
:100D8000B0F5805F03D0B0F5005F12D0012584F884
:100D90003D60002084F83C00284670BDCB68D1E956
:100DA0000121206800F0CEFC2068816841F07701C5
:100DB00009E0CB68D1E90121206800F0C3FC20687C
:100DC000816841F480418160E1E719E0CA684968BF
:100DD000206800F06BFD5021206806E0CA68496871
:100DE000206800F074FD6021206800F0B5FCCEE7BB
:100DF000CA684968206800F059FD40212068F4E77E
:100E0000226801461046F0E7704770B50446006856
:100E100001694FF00005C943890715D4C168C9436A
:100E2000890711D4E91E01610120207720688069BB
:100E30008007204602D0FFF7E7FF04E000F0BEF88D
:100E4000204600F050F9257720680169C943490719
:100E500017D4C168C943490713D46FF00401016175
:100E6000022020772068806910F4407F204602D05D
:100E7000FFF7CAFF04E000F0A1F8204600F033F9C4
:100E8000257720680169C943090716D4C168C94399
:100E9000090712D46FF0080101610420207720684F
:100EA000C0698007204602D0FFF7AEFF04E000F0E3
:100EB00085F8204600F017F9257720680169C943B5
:100EC000C90617D4C168C943C90613D46FF010010D
:100ED0000161082020772068C06910F4407F204617
:100EE00002D0FFF791FF04E000F068F8204600F020
:100EF000FAF8257720680169C943C90708D1C16894
:100F0000C943C90704D1891E0161204600F0ECF8ED
:100F100020680169C943090609D4C168C9430906A3
:100F200005D46FF0800101612046FFF745FE20687F
:100F30000169C943490609D4C168C943490605D4B2
:100F40006FF040010161204600F0DCF82068016983
:100F5000C94389060BD4C168C943890607D46FF019
:100F6000200101612046BDE87040FFF726BE70BD3C
:100F700000B585B0002100910191029103910068B4
:100F80000B49884211D10B48816941F0040181610C
:100F90008069694600F004000490C020009002209F
:100FA000019003900448FFF7F5F905B000BD00007B
:100FB000000400400010024000080140704770B576
:100FC000044690F83C0000260D4601280FD0012071
:100FD00084F83C006AB1042A1DD0082A2FD00C2ABC
:100FE0003FD00126002084F83C00304670BD02202E
:100FF00070BD206800F0B8FB2068816941F00801ED
:1010000081612068816921F0040181612068816922
:101010002A69114311E0206800F0CEFB2068816945
:1010200041F4006181612068816921F480618161FE
:10103000206881692A6941EA02218161D2E720683A
:1010400000F0E6FB2068C16941F00801C161206839
:10105000C16921F00401C1612068C1692A69114395
:1010600011E0206800F000FC2068C16941F40061D3
:10107000C1612068C16921F48061C1612068C169D2
:101080002A6941EA0221C161ACE710B5040003D02E
:1010900094F83D0010B107E0012010BD002084F855
:1010A0003C00204600F01EF8022084F83D00211D7F
:1010B000206800F011FB012084F8460084F83E000F
:1010C00084F83F0084F8400084F8410084F842002E
:1010D00084F8430084F8440084F8450084F83D0017
:1010E000002010BD7047704700680449884203D152
:1010F00003480168491C016070470000000400407B
:10110000000000207047704770470000F8B5016884
:1011100004460868CA684B6910F00F0F4FF00005CD
:1011200059D003F0010602F49077374365D0C10728
:1011300005D0D10503D5616C41F00101616441071F
:1011400005D5D90703D0616C41F0020161648107C4
:1011500005D5D90703D0616C41F004016164010732
:1011600007D502F02001314303D0616C41F0080142
:101170006164616C00293AD0800604D5900602D5DE
:10118000204600F0E5FB20684069616CC0F38010E8
:10119000090700D460B3204600F0B3FB2068406923
:1011A000400621D52068143050E8001F21F040018E
:1011B00040E80012002AF5D1E06BA8B16D49416307
:1011C000E06BFFF79BF8002811D0E06B416B01B09A
:1011D000BDE8F040084783060FD593060DD520469D
:1011E000BDE8F84000F0B4BB2046FFF78DFFF8BD26
:1011F0002046FFF789FF6564F8BD266B2023012E8A
:101200007CD1C6067AD5D60678D50868486800909D
:1012100048694FF00206400640D5E16B0868406817
:101220000004000CE8D0A28D8242E5D9E0858869EF
:1012300020282DD020680C3050E8001F21F4807148
:1012400040E80012002AF5D12068143050E8001F51
:1012500021F0010140E80012002AF5D12068143085
:1012600050E8001F21F0400140E80012002AF5D1AB
:1012700084F84230256320680C3050E8001F21F0CC
:10128000100140E80012002AF5D1E06BFFF713F8D7
:101290006663A08DE18D401A81B22AE0A08DE18DB8
:1012A000401A81B2E08D0028A6D00029A4D022687F
:1012B0000C3252E8000F20F4907042E80007002F33
:1012C000F5D12068143050E8002F22F0010240E8E8
:1012D0000027002FF5D184F84230256320680C30B8
:1012E00050E8002F22F0100240E80023002BF5D137
:1012F00066632046FFF707FFF8BDFFE705062BD51D
:10130000150629D594F841002128F5D1A068B0F53B
:10131000805F01D12069B0B1206A411C216221683F
:1013200000784860E08C401E0004000CE084E3D1AB
:101330002068C16821F08001C1602068C16841F067
:101340004001C160D8E7206A0088C0F30800486007
:10135000206A801C2062E5E74006CDD55006CBD53B
:10136000CA68204622F04002CA6084F8413000F08A
:101370009FF8C1E7F318000870B5040004D094F892
:101380004100002510B106E0012070BD84F84050F6
:10139000204600F023F8242084F841002068C1682A
:1013A00021F40051C160204600F034FB206801693F
:1013B00021F4904101612068416921F02A014161D5
:1013C0002068C16841F40051C1606564202084F840
:1013D000410084F842006563002070BD30B585B0DF
:1013E00000240094019402940394006814498842F4
:1013F00024D11448816941F480418161816901F4FB
:1014000080410491816941F00401816180690E4D40
:1014100000F0040004904FF400700090022001904E
:101420000320039069462846FEF7B4FF2815CDE94E
:101430000004694628460294FEF7ACFF05B030BDB3
:1014400000380140001002400008014070B50068FB
:101450001449884224D11448144D841E01882088E0
:1014600025F8101010B929880F2919D1401C80B215
:1014700000262080642800D9268028880F280FD1D4
:10148000288E00280CD12088192809D1074800F09F
:1014900071FF002025F81060401C1928FADB268017
:1014A00070BD00000038014006000020B0000020A0
:1014B0007047FEE70D4808B5816941F01001816170
:1014C000816901F010010091816941F02001816181
:1014D000816901F020010091816941F0040181617D
:1014E000806900F00400009008BD00000010024078
:1014F00010B586B000241A48009401940294039415
:10150000049416490594016041F61F41C0E9011495
:1015100042F20F71C0E9031444618461FFF782FB5A
:1015200008B1FEF7C6FE4FF48050009069460C48A3
:10153000FFF7FCFB08B1FEF7BCFE049404A90848C1
:101540000594FFF73BFB08B1FEF7B3FE0448FFF735
:1015500069FB0348FFF7BEFB06B010BD002C01403D
:101560002000002010B58EB0002407940894099440
:101570000A940B941C2168460C94FEF725FE224821
:10158000204901604721C0E9011444F61F61C0E908
:1015900003148461FFF746FB08B1FEF78AFE4FF49F
:1015A0008050079007A91848FFF7C0FB08B1FEF765
:1015B00080FE1548FFF769FD08B1FEF77AFE0B942F
:1015C0000BA911480C94FFF7F9FA08B1FEF771FE68
:1015D0006020CDE900040294002269460A48049480
:1015E000FFF7EDFC08B1FEF764FE042269460648E9
:1015F000FFF7E5FC08B1FEF75CFE0348FFF7B8FC17
:101600000EB010BD000400406800002010B5104C62
:101610000E4820604FF4E13060604FF48050A060CD
:101620004000E060C0102061042060610020A061E3
:10163000E0612046FFF7A0FE08B1FEF73AFE206801
:10164000C16841F02001C16010BD000000380140B8
:1016500078010020FEE7FEE770477047FEF790BF75
:1016600030B58FB028216846FEF7AEFD14210AA8D8
:10167000FEF7AAFD01210804CDE900100024029420
:1016800002250491CDE907504FF4E0100990684617
:10169000FFF7EEF808B172B6FEE70F20CDE90A05B4
:1016A0004FF48060CDE90C4002210AA80E94FFF7A8
:1016B00003F8002801D072B6FEE70FB030BD7047C6
:1016C0000148FFF7A2BB0000200000200148FFF7FF
:1016D0009CBB000068000020F0B50268164B174C58
:1016E000174D4FF08047984205D0B84203D0A04232
:1016F00001D0A84203D122F070064A6832439842D2
:1017000005D0B84203D0A04201D0A84203D122F4B0
:101710004074CA6822434C6922F08002224302606E
:101720008A68C2620A688262984201D109690163CB
:1017300001214161F0BD0000002C01400004004087
:101740000008004010B5846842EA032224F47F4474
:101750000A432243826010BD826822F070020A436D
:1017600042F007018160704730B5036A026A22F0D7
:10177000010202624268846924F073050C682C43FC
:1017800023F002058B682B430A4DA8420BD123F0AE
:101790000805CB6822F440722B434D6923F0040303
:1017A00015438A692A434260846149684163036240
:1017B00030BD0000002C014030B5026A036A23F0FE
:1017C00010030362436884690D6824F4E64444EA24
:1017D00005248D6822F0200242EA05120B4DA84232
:1017E0000ED1CD6822F0800242EA05124D6923F441
:1017F000406343EA85038D6922F0400243EA850392
:101800004360846149688163026230BD002C0140FD
:1018100030B5036A026A22F4807202624268C469C7
:1018200023F4007324F073050C682C438D6843EA9D
:1018300005230C4DA8420ED1CD6823F4006343EA82
:1018400005234D6922F4405242EA05128D6923F4C2
:10185000806342EA05124260C4614968C163036261
:1018600030BD0000002C014030B5046A026A22F449
:10187000805202624268C3690D6823F4E64343EA7A
:1018800005238D6824F4005444EA0534064DA8422B
:1018900004D14D6922F4804242EA85124260C3615C
:1018A00049680164046230BD002C014010B5036A30
:1018B000046A24F001040462846924F0F00444EA18
:1018C000021423F00A020A438461026210BD10B5BB
:1018D000036A046A24F010040462846923F0A003FC
:1018E00024F4704444EA023243EA01118261016245
:1018F00010BD10B5406A0021C185C184FFF704FC0A
:1019000010BD01680C3151E8002F22F4907241E8BB
:101910000023002BF5D10168143151E8002F22F08B
:10192000010241E80023002BF5D1016B012909D107
:1019300001680C3151E8002F22F0100241E8002329
:10194000002BF5D1202180F842100021016370475F
:1019500008B590F84210222901D0022008BD826803
:101960004FF480539A4201D1016921B1816A9A42B0
:101970001BD04AB10AE00268816A5268C2F30802C9
:101980000A80816A891C08E0026972B102685268A3
:1019900002F07F020A70816A491C8162C18D491E72
:1019A0000904090CC18503D01BE002685268F1E705
:1019B0000168CA6822F02002CA600168CA6822F47D
:1019C0008072CA6001684A6922F001024A612021DE
:1019D00080F8421000214163026B012A03D0FFF717
:1019E00035FD002008BD016301680C3151E8002F6E
:1019F00022F0100241E80023002BF5D101680A68AB
:101A0000D20602D50A6849680091818DFFF77BFBF9
:101A1000E7E7000070B5044600680169E26821F458
:101A20004051114301612169A0680843616908437D
:101A30002168CA6841F20C639A430243CA60206875
:101A40004169A26921F44071114341611E49206836
:101A5000884202D1FEF7D6FE01E0FEF7C3FE00EB9E
:101A6000C00101EB0012606864218000B2FBF0F35A
:101A7000B3FBF1F36FF018067343B2FBF0F5B2FB62
:101A8000F0F605EB8305322303EB0515B5FBF1F505
:101A9000B6FBF1F605F0F00505EB0615B2FBF0F626
:101AA000B2FBF0F0B0FBF1F06FF01802504306EB20
:101AB000800003EB0010B0FBF1F0216800F00F0094
:101AC0002844886070BD0000003801400148FFF7DD
:101AD0001DBB000078010020FEE7490050EAC1204C
:101AE00018BF04204A0D18BF40F0010040F2FF72F9
:101AF000B2EB515F08BF40F00200012808BF05208B
:101B000070470907090E002804DB00F1E02080F887
:101B10000014704700F00F0000F1E02080F8141D61
:101B2000704700002DE9F74F144694B00021C4E936
:101B300002111599079121F00045C9498D4206DC33
:101B40001599C4E9000117B00020BDE8F08FC54920
:101B5000DFF814A3A9423CDD0799C44E0029C44F05
:101B6000C44A1599534619DD01F042F8554506D08F
:101B7000C14AC24B01F03CF8C4E900010AE04FF051
:101B8000D352BE4B01F034F832463B4601F030F8F8
:101B9000C4E9000117B00120BDE8F08F00F0BCFCE3
:101BA000554506D0B44AB54B00F0B6FCC4E9000177
:101BB0000AE04FF0D352B14B00F0AEFC32463B4648
:101BC00000F0AAFCC4E9000117B04FF0FF30BDE8F7
:101BD000F08FAB49A942159978DB21F0004183468B
:101BE0008846A84AA84B00F0F9FE0022A74B00F057
:101BF00093FC00F099FE099000F0C5FE06460F46E2
:101C00009C4A534600F0EAFE43465A4600F0E4FF81
:101C100080468A46984A994B3046394600F0DEFEA7
:101C20002A0D01250B924246534600F0D5FF032DA5
:101C3000C4E9000139D00B98C1F30A51401A05EBF1
:101C400045111139814230DA9148C346784400EB9E
:101C50000510CDF80CA00C90D0E900233046394691
:101C600000F0BCFE02460B460491069058460399CC
:101C700000F0BEFF80468A4602460B46584603994E
:101C800000F0B6FF049B069A00F0B2FF83460C9862
:101C900003913946D0E90223304600F09FFE5A46B0
:101CA000039B00F0A5FF6D1CBDE707980028A2BFAD
:101CB000099817B0BDE8F08F616881F0004161605C
:101CC000099817B04042BDE8F08FFFE784461598A9
:101CD000C1F31301C0F30A50A0F2F5304FEA6018C7
:101CE00000F01F06C6F12000139000200690079018
:101CF00041F4801E05206D4676B1664A08EB00016E
:101D00007A4452F8213002EB8101B3404A681399BA
:101D100022FA01F1194305E05F4908EB000279441A
:101D200051F82210A1FB0E27A1FB0C131A449A4272
:101D300034BF0123002303EB070A05EB8003D3E93B
:101D400001B70F448F4234BF0121002193448B44DB
:101D500011B1934502D903E0934501D2012100E07E
:101D60000021C3E901B7514445F82010011EA0F13C
:101D70000100C1DC0298059F00F10050800F129015
:101D80000298DDE90356800000F0FDFD83462846F9
:101D90000D9100F00FFE6FF01D0201F02AFBCDE95E
:101DA0000E01304600F006FE6FF03D0201F021FB0F
:101DB00080468A46384600F0FDFD6FF05D0201F076
:101DC00018FB074642465346119100F0A5FBDDE99A
:101DD0000E2300F0A1FB5A460D9B00F09DFB002551
:101DE0000E465A4628460D9B00F002FFDDE90E2301
:101DF00000F0FEFE4246534600F0FAFE3A46119BC2
:101E000000F0EAFEDFF898A0244A534600F0E6FD11
:101E100007468846234A244B3146284600F0DEFD1B
:101E20003A46434600F078FB074688464FF0A84202
:101E300053463146284600F0D1FD3A46434600F06D
:101E40006BFB159A12F0004F04D0129A81F00041FA
:101E500052421292C4E90001129817B0BDE8F08F07
:101E6000FB21E93F7CD90240FB21F93F7370032E2F
:101E70008A19A33B000040543163621A61B4D03D1B
:101E8000FB21394183C8C96D305FE43F0000E03F6A
:101E9000901800000C180000EE170000182D445494
:101EA000FB21F93D3326A611460B113C2DE9FF4DD0
:101EB00021F0004807460C46B8F1795F08DA00F0D7
:101EC00033FD002801BF0020324904B0BDE8F08D89
:101ED0003A4623461046194600F080FD0546024664
:101EE0002D480E460B460621784400F05DF82A4640
:101EF000334600F073FDDDE9022382468B46384607
:101F0000214600F06BFD04460F4652465B462846CC
:101F1000314600F063FD22463B4600F069FE07466D
:101F20008A464FF0FF322846314601F062FA1B4ADA
:101F300090450ADA3A46534600F05AFE04B00022B1
:101F4000BDE8F04D134B00F047BE154A4245A8BF0F
:101F5000A8F500154FF00004B8BF124D22462B46DD
:101F600000F046FE0646884622462B4600200949D8
:101F700000F03EFE04460D463A4653463046414682
:101F800000F036FE04B022462B46BDE8F04D00F0CE
:101F900023BE00000000F03FC41500003333D33FE0
:101FA0000000E93F0000D23F2DE9F0414F1E00EB59
:101FB000C7010446D1E9000115461E4637F0060266
:101FC0000DD02A46334600F009FD7F1E04EBC703FF
:101FD000D3E9002300F0A0FA37F00602F1D1022F76
:101FE00025D0042F13D0062F18BFBDE8F0812A4654
:101FF000334600F0F3FCD4E90A2300F08DFA2A46B8
:10200000334600F0EBFCD4E9082300F085FA2A46B9
:10201000334600F0E3FCD4E9062300F07DFA2A46BB
:10202000334600F0DBFCD4E9042300F075FA2A46BD
:10203000334600F0D3FCD4E9022300F06DFA2A46BF
:10204000334600F0CBFCD4E90023BDE8F04100F0BA
:1020500063BA00002DE9FF4D054621F0004084B031
:102060000C46B0F1795F0BDA2846FFF736FD0428FD
:1020700008BF00F06FF8284608B02146BDE8F08D93
:102080002A460B46104600F0A9FC06460F462A4693
:10209000234600F0A3FC804626488A4632463B464B
:1020A00005217844FFF780FF83461098029160B3C2
:1020B000214A224B4046514600F090FCCDE90001F8
:1020C0005A4640465146029B00F088FC82468846AC
:1020D000DDE906014FF0FF3201F08BF9524643462D
:1020E00000F086FD32463B4600F078FCDDE9062331
:1020F00000F07EFDDDE9002300F07AFD08B02A46FD
:102100002346BDE8F04D00F067BD0B465A46304609
:10211000394600F063FC084A084B00F0FDF94246DE
:10212000534600F05BFC08B02A462346BDE8F04D5C
:1021300000F0F2B902150000495555555555C5BF77
:10214000012201F056B9002213461046114600F054
:1021500093BA0000024A0020110701F04AB90000BA
:1021600001FDFFFF0A2801DC002070470A38704794
:10217000884200DA0846904200DD104670472DE99B
:10218000F0414FF4FA750F466E42B0B100F0A6FF71
:10219000044600F0DBF8214600F0B8FF044638465C
:1021A00000F09CFF214600F039FE00F05BFF2A465C
:1021B0003146BDE8F041FFF7DBBF2A4631463846DD
:1021C000F7E70000FEF7E4F9FFF74AFAFFF772F9C4
:1021D000FFF71CFAFFF78CF9FFF7C4F90022012181
:1021E0002520FEF737FA2520FEF726FA01220021E6
:1021F0001D20FEF72FFA1D20FEF71EFADFF85C8087
:10220000DFF85C90174F4446B8F80400FFF7AAFFC8
:10221000054620886188084480B200F025F806460B
:10222000A8B200F021F83146FFF7A9FFD9F8001055
:102230004E46081A3968486360882188401A80B27F
:1022400000F012F80446A8B200F00EF82146FFF79D
:1022500096FF3168084439688863D4E70800002095
:10226000803400086800002010B5A0F5967000F0DA
:1022700035FF0B4C214600F049FF0A4900F030FEC3
:10228000214600F0CBFD084A904201DD104602E0F5
:10229000A04200DA204600F001FF80B210BD00002D
:1022A00000007A440000AF440000FA4400B5254B1A
:1022B00021F0004287B09A4203DC002213460092CC
:1022C0002BE0214B9A4208D140B94FF00100FDF7B5
:1022D000AAFFFFF738FF07B000BD03DBFFF730FFB1
:1022E00007B000BD02AAFFF71DFC10F003014FF07C
:1022F00001000DD0012914D002291AD00DF1080CCB
:102300009CE80F00FFF7D2FD07B081F0004100BD4F
:102310000DF1080C00909CE80F00FFF79BFE07B042
:1023200000BD0DF1080C9CE80F00FFF7BFFD07B0E2
:1023300000BD0DF1080C00909CE80F00FFF78AFE2D
:10234000E2E70000FB21E93F0000F07F074810B5FD
:10235000006800F0C3FE064900F0D8FE00F032FD30
:10236000FFF7A4FFBDE8104000F0A4B80000002073
:10237000A692AB3CC28D4E491AB1002081F82800CC
:102380007047012281F828204288037942EA03221B
:10239000C2F30A024A8082888379D20842EA431251
:1023A000C2F30A028A80C2880389920942EA830240
:1023B000837A42EA8322C2F30A02CA804289037BFB
:1023C000521042EAC312C2F30A020A818289837B55
:1023D000121142EA0312C2F30A024A81B0F90E2036
:1023E000038AD21142EA4302837C42EA4322C2F3C7
:1023F0000A028A81428A037D921042EA8312C2F362
:102400000A02CA81828A837D521142EAC302C2F360
:102410000A020A82028B837E42EA0322C2F30A0284
:102420004A82428B037FD21042EA4312C2F30A026D
:102430008A82B0F91C20C38B921142EA830290F881
:10244000203042EA8322C2F30A02CA82028C90F848
:102450002230521042EAC312C2F30A020A83428CAB
:1024600090F82430121142EA0312C2F30A024A839E
:10247000B0F92420C38CD21142EA430290F82830EC
:1024800042EA4322C2F30A028A83028D9310428DEC
:1024900043EA8213C3F30A03CB8390F82C00521152
:1024A00042EAC000C0F30A0008840120704700001F
:1024B000C001002021F00042A2F16052B2F5801F5D
:1024C00001F0004328BFD2F17F6C0BD95FEA001CFA
:1024D00043EAC20242EB507018BF704728BF20F099
:1024E00001007047B2F5801FBCBF184670474FEA25
:1024F000410C1CF5001F02D2084600F0CEBE70B59C
:1025000000F016FB00000089FFF7F6BF4FF0004017
:10251000A0F580007047000010B591EA030F48BF96
:1025200083F0004300F16C83841A71EB030C05D235
:10253000121943EB0C03001B61EB0C01DFF824E1E3
:102540004FEA1154A4EB135C1EEA430F18BF9EEA36
:10255000445F73D023EA0E03DCF1200E21EA04511C
:1025600043F4801332D322FA0CFE10EB0E0023FA50
:102570000CFE41EB0E01CCF1200E03FA0EFE10EB27
:102580000E0051F10001B1F5801FCCF1200E32D2C6
:1025900001EB045112FA0EF2BDE8104058BF70472B
:1025A000401C38BF5FEA420218BF7047002814BFC2
:1025B00020F0010041F100014FEA410313F5001F33
:1025C00038BF7047A1F1C04100F000BB012A43EBC6
:1025D0000302ACF1200CDCF11F0E32BF4FF0000EF5
:1025E00023FA0CF310EB030041EB0451B4EB115F41
:1025F000D0D0A1EB045101F5801149085FEA300009
:1026000001EB04510ED350F1000038BF12FA0EFE58
:1026100008D1BDE81040C9E7401C38BF5FEA42025C
:10262000CAD1C3E7BDE810404FEA410313F5001FCC
:1026300038BF7047A1F1C04100F0C8BA9EEA445FBC
:1026400008D011EA5E0FBDE8104004BF01F0004160
:1026500000207047BDE8104070B500F069FA00BF77
:1026600064FBBE3E0000E0FF02494FF0000000F0B6
:102670008EBE00BF0000F87F2DE9C04130B4DFF806
:10268000A0C23CEA111418BF3CEA131400F0EC801D
:1026900081EA03051CEA111444EAD57418BF1CEA48
:1026A000131500F0C780A4EB05044FF0004545EA80
:1026B000C12145EAC32341EA505143EA525304F190
:1026C0007F74994204F500344FEAC0204FEAC222D9
:1026D00008BF904200F09C804FEA13650FF240164D
:1026E000765D4FEA134506FB05F7C7F1807706FBD9
:1026F00007F74FEAD737A7FB03687642C8F580385B
:10270000A7FB06CE38BFA8F1010807FB08E64FF08B
:10271000000EA6FB028CE6FB03CEDCF1000CCEF132
:10272000004E38BFAEF1010EA6FB0C584FF000076B
:102730004FF00005E6FB0E87A1FB08C6A0FB07CE05
:1027400016EB0E0645F10005E1FB076515F1E04EBD
:102750007EBFA4F580345FEA46066D4116F180071E
:1027600045F100054FEA17274FEA066647EA056775
:10277000A6F1DE46B6F1805F4FEA15251FD938462F
:1027800024F0010C05EBC471BCF1FE6F01EB0C11E0
:1027900002D8F0BCBDE8008124425CBF01F5801E78
:1027A0009EEAC47F02D4F0BCBDE80081244238D444
:1027B000F0BCA1F1C041BDE8004100F007BA4FEA0A
:1027C000D22242EA43524FEAD323A7FB02864FEAC2
:1027D000D02040EA415007FB03661EEA0E0F4FEA85
:1027E000D12105FB026658BFA6EB0056B6EB00569A
:1027F0004FEA520E4EEAC37E18EB0E0E56EB530E06
:10280000BDD518EB02085E417F1C55F10005B6E707
:102810004FF480154FF000074FF000064FF000080E
:10282000ADE7F0BC4FF0000001F1C04101F0004104
:10283000BDE8008111EA0C1F0CEA131500D00CE072
:1028400013EA0C1F00F025804FF00000F0BC81EA75
:10285000030101F00041BDE80081F0BCBDE800418A
:1028600081EA030100F0B2B9F0BCBDE8004170B5E7
:1028700000F05EF9097EFC3E00F007B881EA030132
:102880004FF0000001F00041704781EA030100F0C1
:102890009DB9F0BCBDE800414FF0000021497047F0
:1028A000FFFDFBF9F7F5F4F2F0EEEDEBE9E8E6E415
:1028B000E3E1E0DEDDDBDAD8D7D5D4D3D1D0CFCD9C
:1028C000CCCBCAC8C7C6C5C4C2C1C0BFBEBDBCBBD5
:1028D000BAB9B8B7B6B5B4B3B2B1B0AFAEADACABD0
:1028E000AAA9A8A8A7A6A5A4A3A3A2A1A09F9F9EAA
:1028F0009D9C9C9B9A99999897979695959493935C
:10290000929191908F8F8E8E8D8C8C8B8B8A8989F2
:102910008888878786858584848383828281818075
:102920000000FF070000F87F4FEA41034FEA5353CE
:10293000A3F58063D3F11E03C8BFD3F1210C0CDDD6
:102940004FF0004242EAC12242EA505232FA03FCFE
:102950008CEAE17CACEBE1707047102BC4BF002027
:10296000704703F5787CBCF1FF3F04D06FF0004264
:1029700082EA2100704770B500F0DAF849922480AD
:1029800000207047F2E710F0004248BF4042B0FA22
:1029900080F310FA03F10AD0C3F11D0303F580633D
:1029A0004FEA415002EB035202EBD12170474FF046
:1029B00000007047B0FA80F310FA03F10AD0C3F1B7
:1029C0001D0303F580634FEA41504FEA035202EBC7
:1029D000D12170474FF0000070470000DFF848C178
:1029E00070B51CEA111E1EBF1CEA13159EEA0C0FDF
:1029F00095EA0C0F00F06F8081EA030423EA4C1380
:102A00004EEAD47E21EA4C1141F4801143F4801344
:102A1000AE44A1FB024CA0FB0365AEF17F7E3619EC
:102A200055EB0C05A1FB034C4CF10003A0FB021C71
:102A300016EB0C06654153F10003094218BF46F03E
:102A4000010613F4007F0BD14FEA03314FEA053042
:102A5000340341EA155140EA16506FF003020AE0D0
:102A60004FEAC3214FEAC520F40241EA555140EA3A
:102A700056506FF0020202EB2E4201EB025585EA3E
:102A8000CE710AD05FEA440C18BF24F0004450F124
:102A9000000041F1000120EAD47040F2FE7C624562
:102AA00000D270BDA84214BF4FF080444FF04044A4
:102AB000002E08BF0024BEF1806FA8BFA1F1C04165
:102AC000BDE8704080F282804FF0000001F1C0410B
:102AD00001F0004170479EEA0C0F0CEA131518BF75
:102AE00095EA0C0F06D04FF0000081EA030E0EF0BD
:102AF000004170BD00F01CF88900013E00F007B8ED
:102B000000F009B84FEA430C5FEA5C5C08D081EA48
:102B1000030100F05BB84FEA410C5FEA5C5CF6D160
:102B20004FF00000014970470000FF070000F87FE8
:102B30000EF1020E2EF0030E5EF8046B364205D441
:102B4000012A43EB030515F5001F12D8012841EBBC
:102B5000010C1CF5001F0CD80ED14FEAD17C15F5E5
:102B6000001F0CEB4C0C0CF1020C08BF4CEBD37C9F
:102B700004E04FF0080C01E04FEAD37C0CEB4C056D
:102B800026FA05F606F00706B6F1040C06D20EEB9F
:102B9000860CBDE870404CF0010C6047DFE80CF09B
:102BA000090B02024FF000414FF00000A1F5002197
:102BB00070BD19461046012851EB010418BFD4F529
:102BC000001484BF002001F0004170BD0808A0F58A
:102BD00000114FEA3101704791EA030F10B581F0FF
:102BE00000413FF5A1AC83F0004300F009B80000BC
:102BF00010B591EA030F48BF83F000433FF594AC52
:102C0000841A71EB030C07D212198CF0004C43EBC1
:102C10000C03001B61EB0C01DFF8A4E14FEA115437
:102C2000A4EB135C1EEA430F18BF9EEA445F00F05A
:102C3000B08023EA6E03524221EA0451C3EB6E03D3
:102C400038BF5B1EDCF1200E25D322FA0CFE10EB00
:102C50000E0043FA0CFE41EB0E01CCF1200E03FAFC
:102C60000EFE10EB0E0051F10001CCF1200E29D424
:102C700012FA0EF201EB0451BDE8104058BF704744
:102C8000401C1CBFB2F1004F704700280CBF491C0C
:102C900020F00100704712EB020E43EB030218BF55
:102CA0004FF0010E4EEA4202ACF1200CDCF11E0E98
:102CB00054D943FA0CFE10EB0E0051F1FF31CCF168
:102CC0001E0ED5D50EF1010E12FA0EFE404141EB5B
:102CD000010101EB445C5FEA5C5C10D910EBDE7033
:102CE00001EB045138BFBEF1004FBDE8104018BFE2
:102CF000704700280CBF491C20F00100704730D2FB
:102D00004FEAD42C11F5001124F400641BD0B1FA61
:102D100081F20B3AA41AA41ED2F12003914030FA9A
:102D200003F31943904001EBCC71002C01EB0451EB
:102D3000BDE81040A8BF704701F1C0414FF000004E
:102D400001F000417047B0FA80F310FA03F100D1AE
:102D500010BDE41A173C4805C90AE4E701EB045129
:102D600010BD491001EB0451BDE810404FEA30009E
:102D700002E04FF0000170474A0008BF0042F8D05F
:102D8000B2F5001F28BF704701F000414FF000006E
:102D900070479EEA445F07D011EA5E0FBDE810401D
:102DA00004BF002100207047BDE8104070B5FFF758
:102DB000BFFE00BF40DFF63E83F000411046704783
:102DC0000000E0FF43004FEAD30C4FEA3C0C4340C5
:102DD0001FBF40070CF1605113F0FE4F70471CF00D
:102DE000006F03D100200CF0004170470CF000434D
:102DF00043EA507010B540EACC0000F008FA00BF7A
:102E0000000000924FEA0001FFF7E0BE4FF00041E2
:102E10004FF00000A1F500217047000090EA010F7B
:102E200048BF81F0004100F14482421A3CBF801A41
:102E300089184FEAD0524FF07F4C1CEA410FA2EBA9
:102E4000D15318BF9CEA026F00F03B804FF0004C5A
:102E50004CEA00204CEA012121FA03FC10EB0C0C97
:102E60001ED202F1FF325FEA1C2040EBC25038BF95
:102E700070471CF07F0F4FEA400C18BFBCF17F4F2A
:102E800038BF7047C3F12003994008BF20F001000C
:102E9000BCF17F4F38BF7047A0F1C04000F0FDB9D2
:102EA0004FEA3C00000A40EBC25028BF1CF0FF0F65
:102EB0004FEA400CE6D018BFBCF17F4F38BF7047D7
:102EC000EAE79CEA026F05D010EA5C0F08BF00F049
:102ED0000040704710B500F09AF900BF64FBBE3E99
:102EE0004FF47F0C1CEAD0121EBF1CEAD11392EAE9
:102EF0000C0F93EA0C0F00F0858090EA010F48BF99
:102F000042F4807240F4000C41F400002CF07F4148
:102F100020F07F4000B58142A2EB03020FF2081CB3
:102F2000ACEB504EC0F100009EF800E04FEA4E0EB0
:102F300000FB0EFC38BF49004FEA2C1C02F5FA02D8
:102F40000CFB0EF34FEACE1E4FEA112C4FEAC121C3
:102F50000EEB635E42EB22420EFB0CFC4FEA1C536D
:102F600000FB03114FEA112C4FEA01310EFB0CFC60
:102F70004FEADC4C00FB0C11C14228BF09184CEB96
:102F800003335DF804EB10EB410143EBC250B2F5A3
:102F90007C0F38BF704729D512F0F00F1CBF00F12D
:102FA000C04000F00040704700818283848586879E
:102FB00088898B8C8D8E8F919293959697999A9CF8
:102FC0009D9FA0A2A3A5A7A8AAACAEB0B2B3B5B767
:102FD000B9BCBEC0C2C5C7C9CCCED1D4D7D9DCDF3D
:102FE000E2E6E9ECF0F3F7FAFE0000004FEA400CED
:102FF0000CF1807CBCF17E4F28BF7047B0F1C0401F
:1030000000F04BB990EA010F0CEAD11348BF42F42B
:103010008072624538BF634507D213F47F0F16D024
:1030200080EA010000F00040704710B500F0EFF8B2
:10303000097EFC3E00F005B880EA010000F0004087
:10304000704780EA010000F0004000F026B912F459
:103050007F0F04BF0248704780EA010000F01DB9ED
:103060000000C07F41000B0ED3F19E0208D950F43E
:1030700000034FEA032323FA02F048BF404270479F
:1030800010B500F0C4F800BF4992248000207047BA
:103090006FF0004282EA200070470000C10DD1F1BC
:1030A0009E0206DB4FEA002343F0004323FA02F0BE
:1030B0007047004207D54FEA4001B1F1FE4F02D2FE
:1030C0004FF00000704710B500F0A1F8499224803D
:1030D000002070476FEA20007047000010F00041A8
:1030E00048BF4042B0FA80F310FA03F2C3F19D03E7
:1030F0000BD051EAC35101EB1220530638BF704781
:1031000000F1010008BF20F0010070474FF47F0C70
:103110001CEAD0121EBF1CEAD11392EA0C0F93EAEC
:103120000C0F00F0478090EA010F48BF42F4807214
:103130004FF0004C4CEA00204CEA012102EB030264
:10314000A0FB0113A2F50002002918BF43F0010300
:103150005B0028BF4FEA330342EB22425FEA132CA5
:103160004CEBC2502EBFBCEB436FB2F57C0F7047E7
:103170004FEA036CBCF1004F08BF20F00100B2F52C
:103180007C0F38BF70470BD582F0FF0212F5803FED
:10319000C8BF704700F1C040D8BF00F00040704782
:1031A00000F5000C5FEA4C0C48BF7047B0F1C0401E
:1031B00000F073B890EA010F0CEAD11348BF42F453
:1031C0008072624538BF634504D280EA010000F096
:1031D0000040704710B500F01AF800BF8900013EAA
:1031E00000F007B800F009B85FEA410C5FEA1C6C18
:1031F00008D080EA010000F050B85FEA400C5FEAB6
:103200001C6CF6D14FF00040A0F5800070470EF125
:10321000020E2EF0030E5EF8044B244204D44FEA53
:103220004102B2F17F4F11D84FEA4003B3F17F4F13
:103230000CD80ED14FEAD07CB2F17F4F0CEB4C0C86
:103240000CF1020C08BF4CEBD17C04E04FF0080CF1
:1032500001E04FEAD17C0CEB4C0324FA03F404F0B8
:103260000704B4F1040C06D20EEB840CBDE8104048
:103270004CF0010C6047DFE80CF0070802024FF049
:103280000040A0F5800010BD0846420018BFD2F1F2
:10329000807288BF00F0004010BDFF2141EAD0508D
:1032A000C005704790EA010F48BF81F000413FF52B
:1032B000BCAD421A04D882F00042A0EB02001144D7
:1032C0004FEAD0524FF07F4C1CEA410FA2EBD15392
:1032D00018BF9CEA026F4AD04FF0004C4CEA002025
:1032E0004CEA012121FA03FCB0EB0C0C0FD412F0D4
:1032F000FE0F36D05FEA4C001DD5001240EBC250E5
:1033000038BF70471CF03F0F18BF70470BE0A2F1A9
:1033100001025FEA1C2040EBC25038BF70471CF02E
:103320007F0F18BF7047C3F12003994014BF401EA0
:1033300020F00100704780084FEA122308BF704751
:10334000B0FA80FCA2EB0C02CCF1280C60FA0CF075
:1033500093EA122F04BF00EBC25070474FEAC370CC
:103360007047130A5FEADC1008BF7047F6E79CEA73
:10337000026F04D010EA5C0F08BF0020704710B540
:10338000FFF745FF40DFF63E81F0004070470CF04C
:103390000F03092B08BF082000F059800A2B0BD01F
:1033A000082B18BF704708BF1CF0400F0AD04FF021
:1033B00000004FF0000170471CF0400F18BF4FF0A5
:1033C000004070471CF0100F08D020F0704300F050
:1033D0007F4242EAD3014FEA4370704700F06040F9
:1033E00021F07F4242EA000201F07F4040EA727021
:1033F00070474FF0FF0C4CF4E06C1CEA11531CBFFB
:103400009CEA030C9445C2BFDA4201EB02517047BB
:10341000002B0DD0BCF1000F0FD0002A01F00041AD
:10342000A4BF41F0E04141F07F614FF000007047E0
:1034300001F000414FF00000704750EA01334FF0B7
:103440009B0C18BF4CF0806C7FF40EA970471CF4E5
:10345000801F11D01CF4E02F03D06FEACC3149005B
:1034600070474FF04050EFF3008222F0704242EA82
:10347000000282F3008870474FF0000070470000A0
:10348000DC050000010202030405060708090A0B17
:103490000C0D0E0F101000000000000000000102D3
:1034A00003040607080900000000010203040000ED
:1034B0004C5555555555A53F7751C1166CC156BF52
:1034C0009015CB19A001FA3EAD529C804F7E92BE62
:1034D000C4B1B4BD9EEE213ED43888BEE9FAA8BD81
:1034E00000004054FB21F93F3163621A61B4D03DC2
:1034F0000000601A61B4D03D7370032E8A19A33B9B
:103500000000002E8A19A33BC14920259A837B39EC
:1035100000000000000000006E83F9A22915444E4F
:10352000D15727FCC0DD34F5999562DB4190433CCF
:10353000AB6351FE61C5BBDE3A6E24B7E0D24D42AB
:10354000EA2E49061C92D1091CEB1DFE3EA729B1AB
:10355000F53582E88444BB2E26709CE9417E5FB439
:1035600039D69139F43953838B5F849C3B28F9BD5C
:10357000FF97F81F0F9805DE8B112FEF1F6D0A5A6A
:10358000CF7E366DB709CB27663F464F2DEA5F9E4B
:10359000C7BA27757BF1E5EBF739073DEA92528A06
:1035A000B15FFB6B085D8D1FA6F810111111813FF3
:1035B000D561C119A0012ABF7DFEB157E31DC73EE9
:1035C000EB9C2B8AE6E55ABE7CD5CF5A3AD9E53D2D
:1035D000F03500080000002020000000280100084D
:1035E00010360008200000203008000044010008C8
:1035F00000000000000000000000000000000000CB
:103600000100000010000000000000000024F40091
:04000005080000ED02
:00000001FF
